{
  "_format": "hh-sol-artifact-1",
  "contractName": "IdentityManagement",
  "sourceName": "contracts/IdentityManagement.sol",
  "abi": [
    {
      "inputs": [],
      "name": "InvalidInitialization",
      "type": "error"
    },
    {
      "inputs": [],
      "name": "NotInitializing",
      "type": "error"
    },
    {
      "anonymous": false,
      "inputs": [
        {
          "indexed": false,
          "internalType": "uint64",
          "name": "version",
          "type": "uint64"
        }
      ],
      "name": "Initialized",
      "type": "event"
    },
    {
      "anonymous": false,
      "inputs": [
        {
          "indexed": true,
          "internalType": "address",
          "name": "userAddress",
          "type": "address"
        },
        {
          "indexed": false,
          "internalType": "uint256",
          "name": "sid",
          "type": "uint256"
        }
      ],
      "name": "SidRegistered",
      "type": "event"
    },
    {
      "anonymous": false,
      "inputs": [
        {
          "indexed": true,
          "internalType": "uint256",
          "name": "sid",
          "type": "uint256"
        },
        {
          "indexed": true,
          "internalType": "address",
          "name": "oldAddress",
          "type": "address"
        },
        {
          "indexed": true,
          "internalType": "address",
          "name": "newAddress",
          "type": "address"
        }
      ],
      "name": "SidTransferred",
      "type": "event"
    },
    {
      "inputs": [
        {
          "internalType": "uint256",
          "name": "sid",
          "type": "uint256"
        }
      ],
      "name": "getAddress",
      "outputs": [
        {
          "internalType": "address",
          "name": "",
          "type": "address"
        }
      ],
      "stateMutability": "view",
      "type": "function"
    },
    {
      "inputs": [
        {
          "internalType": "address",
          "name": "userAddress",
          "type": "address"
        }
      ],
      "name": "getSid",
      "outputs": [
        {
          "internalType": "uint256",
          "name": "",
          "type": "uint256"
        }
      ],
      "stateMutability": "view",
      "type": "function"
    },
    {
      "inputs": [],
      "name": "initialize",
      "outputs": [],
      "stateMutability": "nonpayable",
      "type": "function"
    },
    {
      "inputs": [],
      "name": "register",
      "outputs": [],
      "stateMutability": "nonpayable",
      "type": "function"
    },
    {
      "inputs": [
        {
          "internalType": "address",
          "name": "newAddress",
          "type": "address"
        }
      ],
      "name": "transferSid",
      "outputs": [],
      "stateMutability": "nonpayable",
      "type": "function"
    }
  ],
  "bytecode": "0x608060405234801561001057600080fd5b50610aa2806100206000396000f3fe608060405234801561001057600080fd5b50600436106100575760003560e01c806309304bb21461005c578063162d9e73146100785780631aa3a008146100a85780638129fc1c146100b2578063b93f9b0a146100bc575b600080fd5b61007660048036038101906100719190610748565b6100ec565b005b610092600480360381019061008d9190610748565b610329565b60405161009f919061078e565b60405180910390f35b6100b0610371565b005b6100ba6104f3565b005b6100d660048036038101906100d191906107d5565b610680565b6040516100e39190610811565b60405180910390f35b60008060003373ffffffffffffffffffffffffffffffffffffffff1673ffffffffffffffffffffffffffffffffffffffff16815260200190815260200160002054905060008103610172576040517f08c379a000000000000000000000000000000000000000000000000000000000815260040161016990610889565b60405180910390fd5b60008060008473ffffffffffffffffffffffffffffffffffffffff1673ffffffffffffffffffffffffffffffffffffffff16815260200190815260200160002054146101f3576040517f08c379a00000000000000000000000000000000000000000000000000000000081526004016101ea906108f5565b60405180910390fd5b806000808473ffffffffffffffffffffffffffffffffffffffff1673ffffffffffffffffffffffffffffffffffffffff16815260200190815260200160002081905550816001600083815260200190815260200160002060006101000a81548173ffffffffffffffffffffffffffffffffffffffff021916908373ffffffffffffffffffffffffffffffffffffffff1602179055506000803373ffffffffffffffffffffffffffffffffffffffff1673ffffffffffffffffffffffffffffffffffffffff168152602001908152602001600020600090558173ffffffffffffffffffffffffffffffffffffffff163373ffffffffffffffffffffffffffffffffffffffff16827fef9f1ba672c86a25daee6fcbfd730e4ee67d5c3290c9931cf95c6f19f9d8b43f60405160405180910390a45050565b60008060008373ffffffffffffffffffffffffffffffffffffffff1673ffffffffffffffffffffffffffffffffffffffff168152602001908152602001600020549050919050565b60008060003373ffffffffffffffffffffffffffffffffffffffff1673ffffffffffffffffffffffffffffffffffffffff16815260200190815260200160002054146103f2576040517f08c379a00000000000000000000000000000000000000000000000000000000081526004016103e990610961565b60405180910390fd5b600060026000815480929190610407906109b0565b919050559050806000803373ffffffffffffffffffffffffffffffffffffffff1673ffffffffffffffffffffffffffffffffffffffff16815260200190815260200160002081905550336001600083815260200190815260200160002060006101000a81548173ffffffffffffffffffffffffffffffffffffffff021916908373ffffffffffffffffffffffffffffffffffffffff1602179055503373ffffffffffffffffffffffffffffffffffffffff167f9e54bb3571391a67f5cf323331b9e22b1daacc77ccaa49f7413ccdcc71db6f16826040516104e8919061078e565b60405180910390a250565b60006104fd6106bd565b905060008160000160089054906101000a900460ff1615905060008260000160009054906101000a900467ffffffffffffffff1690506000808267ffffffffffffffff1614801561054b5750825b9050600060018367ffffffffffffffff16148015610580575060003073ffffffffffffffffffffffffffffffffffffffff163b145b90508115801561058e575080155b156105c5576040517ff92ee8a900000000000000000000000000000000000000000000000000000000815260040160405180910390fd5b60018560000160006101000a81548167ffffffffffffffff021916908367ffffffffffffffff16021790555083156106155760018560000160086101000a81548160ff0219169083151502179055505b600160028190555083156106795760008560000160086101000a81548160ff0219169083151502179055507fc7f505b2f371ae2175ee4913f4499e1f2633a7b5936321eed1cdaeb6115181d260016040516106709190610a51565b60405180910390a15b5050505050565b60006001600083815260200190815260200160002060009054906101000a900473ffffffffffffffffffffffffffffffffffffffff169050919050565b60007ff0c57e16840df040f15088dc2f81fe391c3923bec73e23a9662efc9c229c6a00905090565b600080fd5b600073ffffffffffffffffffffffffffffffffffffffff82169050919050565b6000610715826106ea565b9050919050565b6107258161070a565b811461073057600080fd5b50565b6000813590506107428161071c565b92915050565b60006020828403121561075e5761075d6106e5565b5b600061076c84828501610733565b91505092915050565b6000819050919050565b61078881610775565b82525050565b60006020820190506107a3600083018461077f565b92915050565b6107b281610775565b81146107bd57600080fd5b50565b6000813590506107cf816107a9565b92915050565b6000602082840312156107eb576107ea6106e5565b5b60006107f9848285016107c0565b91505092915050565b61080b8161070a565b82525050565b60006020820190506108266000830184610802565b92915050565b600082825260208201905092915050565b7f55736572206e6f74207265676973746572656400000000000000000000000000600082015250565b600061087360138361082c565b915061087e8261083d565b602082019050919050565b600060208201905081810360008301526108a281610866565b9050919050565b7f4e6577206164647265737320616c726561647920726567697374657265640000600082015250565b60006108df601e8361082c565b91506108ea826108a9565b602082019050919050565b6000602082019050818103600083015261090e816108d2565b9050919050565b7f5573657220616c72656164792072656769737465726564000000000000000000600082015250565b600061094b60178361082c565b915061095682610915565b602082019050919050565b6000602082019050818103600083015261097a8161093e565b9050919050565b7f4e487b7100000000000000000000000000000000000000000000000000000000600052601160045260246000fd5b60006109bb82610775565b91507fffffffffffffffffffffffffffffffffffffffffffffffffffffffffffffffff82036109ed576109ec610981565b5b600182019050919050565b6000819050919050565b600067ffffffffffffffff82169050919050565b6000819050919050565b6000610a3b610a36610a31846109f8565b610a16565b610a02565b9050919050565b610a4b81610a20565b82525050565b6000602082019050610a666000830184610a42565b9291505056fea26469706673582212201c77e2de5743dc0706faf5c45714ed7e6a0f19d4c6f6496416628d5725364f1e64736f6c63430008180033",
  "linkReferences": {},
  "deployedLinkReferences": {}
}